{
  "contractName": "FoodChain",
  "abi": [
    {
      "inputs": [],
      "payable": false,
      "stateMutability": "nonpayable",
      "type": "constructor"
    },
    {
      "anonymous": false,
      "inputs": [
        {
          "indexed": false,
          "name": "id",
          "type": "address"
        },
        {
          "indexed": false,
          "name": "name",
          "type": "string"
        },
        {
          "indexed": false,
          "name": "platformType",
          "type": "uint8"
        },
        {
          "indexed": false,
          "name": "metadata",
          "type": "string"
        },
        {
          "indexed": false,
          "name": "timestamp",
          "type": "uint256"
        }
      ],
      "name": "LogPlatformRegistered",
      "type": "event"
    },
    {
      "anonymous": false,
      "inputs": [
        {
          "indexed": false,
          "name": "id",
          "type": "address"
        },
        {
          "indexed": false,
          "name": "name",
          "type": "string"
        },
        {
          "indexed": false,
          "name": "platformType",
          "type": "uint8"
        },
        {
          "indexed": false,
          "name": "metadata",
          "type": "string"
        },
        {
          "indexed": false,
          "name": "timestamp",
          "type": "uint256"
        }
      ],
      "name": "LogPlatformRemoved",
      "type": "event"
    },
    {
      "anonymous": false,
      "inputs": [
        {
          "indexed": false,
          "name": "id",
          "type": "string"
        },
        {
          "indexed": false,
          "name": "platform",
          "type": "address"
        },
        {
          "indexed": false,
          "name": "actorType",
          "type": "uint8"
        },
        {
          "indexed": false,
          "name": "metadata",
          "type": "string"
        },
        {
          "indexed": false,
          "name": "timestamp",
          "type": "uint256"
        }
      ],
      "name": "LogActorRegistered",
      "type": "event"
    },
    {
      "anonymous": false,
      "inputs": [
        {
          "indexed": false,
          "name": "id",
          "type": "string"
        },
        {
          "indexed": false,
          "name": "platform",
          "type": "address"
        },
        {
          "indexed": false,
          "name": "actorType",
          "type": "uint8"
        },
        {
          "indexed": false,
          "name": "metadata",
          "type": "string"
        },
        {
          "indexed": false,
          "name": "timestamp",
          "type": "uint256"
        }
      ],
      "name": "LogActorRemoved",
      "type": "event"
    },
    {
      "anonymous": false,
      "inputs": [
        {
          "indexed": false,
          "name": "id",
          "type": "string"
        },
        {
          "indexed": false,
          "name": "name",
          "type": "string"
        },
        {
          "indexed": false,
          "name": "platform",
          "type": "address"
        },
        {
          "indexed": false,
          "name": "entityType",
          "type": "uint8"
        },
        {
          "indexed": false,
          "name": "metadata",
          "type": "string"
        },
        {
          "indexed": false,
          "name": "timestamp",
          "type": "uint256"
        }
      ],
      "name": "LogEntityRegistered",
      "type": "event"
    },
    {
      "anonymous": false,
      "inputs": [
        {
          "indexed": false,
          "name": "id",
          "type": "string"
        },
        {
          "indexed": false,
          "name": "name",
          "type": "string"
        },
        {
          "indexed": false,
          "name": "platform",
          "type": "address"
        },
        {
          "indexed": false,
          "name": "entityType",
          "type": "uint8"
        },
        {
          "indexed": false,
          "name": "metadata",
          "type": "string"
        },
        {
          "indexed": false,
          "name": "timestamp",
          "type": "uint256"
        }
      ],
      "name": "LogEntityRemoved",
      "type": "event"
    },
    {
      "anonymous": false,
      "inputs": [
        {
          "indexed": false,
          "name": "id",
          "type": "string"
        },
        {
          "indexed": false,
          "name": "platform",
          "type": "address"
        },
        {
          "indexed": false,
          "name": "metadata",
          "type": "string"
        },
        {
          "indexed": false,
          "name": "timestamp",
          "type": "uint256"
        }
      ],
      "name": "LogBoxRegistered",
      "type": "event"
    },
    {
      "anonymous": false,
      "inputs": [
        {
          "indexed": false,
          "name": "sessionId",
          "type": "bytes32"
        },
        {
          "indexed": false,
          "name": "boxId",
          "type": "string"
        },
        {
          "indexed": false,
          "name": "actorId",
          "type": "string"
        },
        {
          "indexed": false,
          "name": "platform",
          "type": "address"
        },
        {
          "indexed": false,
          "name": "metadata",
          "type": "string"
        },
        {
          "indexed": false,
          "name": "timestamp",
          "type": "uint256"
        }
      ],
      "name": "LogBoxSession",
      "type": "event"
    },
    {
      "anonymous": false,
      "inputs": [
        {
          "indexed": false,
          "name": "sessionId",
          "type": "bytes32"
        },
        {
          "indexed": false,
          "name": "actorId",
          "type": "string"
        },
        {
          "indexed": false,
          "name": "platform",
          "type": "address"
        },
        {
          "indexed": false,
          "name": "boxId",
          "type": "string"
        },
        {
          "indexed": false,
          "name": "payload",
          "type": "string"
        },
        {
          "indexed": false,
          "name": "cropId",
          "type": "string"
        },
        {
          "indexed": false,
          "name": "timestamp",
          "type": "uint256"
        }
      ],
      "name": "LogBoxProduct",
      "type": "event"
    },
    {
      "anonymous": false,
      "inputs": [
        {
          "indexed": false,
          "name": "sessionId",
          "type": "bytes32"
        },
        {
          "indexed": false,
          "name": "actorId",
          "type": "string"
        },
        {
          "indexed": false,
          "name": "platform",
          "type": "address"
        },
        {
          "indexed": false,
          "name": "boxId",
          "type": "string"
        },
        {
          "indexed": false,
          "name": "payload",
          "type": "string"
        },
        {
          "indexed": false,
          "name": "warehouseId",
          "type": "string"
        },
        {
          "indexed": false,
          "name": "timestamp",
          "type": "uint256"
        }
      ],
      "name": "LogBoxWarehouse",
      "type": "event"
    },
    {
      "anonymous": false,
      "inputs": [
        {
          "indexed": false,
          "name": "sessionId",
          "type": "bytes32"
        },
        {
          "indexed": false,
          "name": "actorId",
          "type": "string"
        },
        {
          "indexed": false,
          "name": "platform",
          "type": "address"
        },
        {
          "indexed": false,
          "name": "boxId",
          "type": "string"
        },
        {
          "indexed": false,
          "name": "payload",
          "type": "string"
        },
        {
          "indexed": false,
          "name": "warehouseId",
          "type": "string"
        },
        {
          "indexed": false,
          "name": "timestamp",
          "type": "uint256"
        }
      ],
      "name": "LogPacketizeProduct",
      "type": "event"
    },
    {
      "anonymous": false,
      "inputs": [
        {
          "indexed": false,
          "name": "sessionId",
          "type": "bytes32"
        },
        {
          "indexed": false,
          "name": "sourceActorId",
          "type": "string"
        },
        {
          "indexed": false,
          "name": "sourcePlatform",
          "type": "address"
        },
        {
          "indexed": false,
          "name": "destinationActorId",
          "type": "string"
        },
        {
          "indexed": false,
          "name": "destinationPlatform",
          "type": "address"
        },
        {
          "indexed": false,
          "name": "boxId",
          "type": "string"
        },
        {
          "indexed": false,
          "name": "payload",
          "type": "string"
        },
        {
          "indexed": false,
          "name": "timestamp",
          "type": "uint256"
        }
      ],
      "name": "LogHandoverFarmTransport",
      "type": "event"
    },
    {
      "anonymous": false,
      "inputs": [
        {
          "indexed": false,
          "name": "sessionId",
          "type": "bytes32"
        },
        {
          "indexed": false,
          "name": "sourceActorId",
          "type": "string"
        },
        {
          "indexed": false,
          "name": "sourcePlatform",
          "type": "address"
        },
        {
          "indexed": false,
          "name": "destinationActorId",
          "type": "string"
        },
        {
          "indexed": false,
          "name": "destinationPlatform",
          "type": "address"
        },
        {
          "indexed": false,
          "name": "boxId",
          "type": "string"
        },
        {
          "indexed": false,
          "name": "payload",
          "type": "string"
        },
        {
          "indexed": false,
          "name": "timestamp",
          "type": "uint256"
        }
      ],
      "name": "LogHandoverTransportWarehouse",
      "type": "event"
    },
    {
      "anonymous": false,
      "inputs": [
        {
          "indexed": false,
          "name": "sessionId",
          "type": "bytes32"
        },
        {
          "indexed": false,
          "name": "sourceActorId",
          "type": "string"
        },
        {
          "indexed": false,
          "name": "sourcePlatform",
          "type": "address"
        },
        {
          "indexed": false,
          "name": "destinationActorId",
          "type": "string"
        },
        {
          "indexed": false,
          "name": "destinationPlatform",
          "type": "address"
        },
        {
          "indexed": false,
          "name": "boxId",
          "type": "string"
        },
        {
          "indexed": false,
          "name": "payload",
          "type": "string"
        },
        {
          "indexed": false,
          "name": "timestamp",
          "type": "uint256"
        }
      ],
      "name": "LogHandoverWarehouseTransport",
      "type": "event"
    },
    {
      "anonymous": false,
      "inputs": [
        {
          "indexed": false,
          "name": "sessionId",
          "type": "bytes32"
        },
        {
          "indexed": false,
          "name": "sourceActorId",
          "type": "string"
        },
        {
          "indexed": false,
          "name": "sourcePlatform",
          "type": "address"
        },
        {
          "indexed": false,
          "name": "destinationActorId",
          "type": "string"
        },
        {
          "indexed": false,
          "name": "boxId",
          "type": "string"
        },
        {
          "indexed": false,
          "name": "payload",
          "type": "string"
        },
        {
          "indexed": false,
          "name": "timestamp",
          "type": "uint256"
        }
      ],
      "name": "LogHandoverTransportSupermarket",
      "type": "event"
    },
    {
      "constant": false,
      "inputs": [
        {
          "name": "id",
          "type": "address"
        },
        {
          "name": "name",
          "type": "string"
        },
        {
          "name": "platformType",
          "type": "uint8"
        },
        {
          "name": "metadata",
          "type": "string"
        }
      ],
      "name": "registerPlatform",
      "outputs": [],
      "payable": false,
      "stateMutability": "nonpayable",
      "type": "function"
    },
    {
      "constant": false,
      "inputs": [
        {
          "name": "id",
          "type": "address"
        }
      ],
      "name": "removePlatform",
      "outputs": [],
      "payable": false,
      "stateMutability": "nonpayable",
      "type": "function"
    },
    {
      "constant": false,
      "inputs": [
        {
          "name": "id",
          "type": "string"
        },
        {
          "name": "platform",
          "type": "address"
        },
        {
          "name": "actorType",
          "type": "uint8"
        },
        {
          "name": "metadata",
          "type": "string"
        }
      ],
      "name": "registerActor",
      "outputs": [],
      "payable": false,
      "stateMutability": "nonpayable",
      "type": "function"
    },
    {
      "constant": false,
      "inputs": [
        {
          "name": "id",
          "type": "string"
        },
        {
          "name": "platform",
          "type": "address"
        }
      ],
      "name": "removeActor",
      "outputs": [],
      "payable": false,
      "stateMutability": "nonpayable",
      "type": "function"
    },
    {
      "constant": false,
      "inputs": [
        {
          "name": "id",
          "type": "string"
        },
        {
          "name": "name",
          "type": "string"
        },
        {
          "name": "platform",
          "type": "address"
        },
        {
          "name": "entityType",
          "type": "uint8"
        },
        {
          "name": "metadata",
          "type": "string"
        }
      ],
      "name": "registerEntity",
      "outputs": [],
      "payable": false,
      "stateMutability": "nonpayable",
      "type": "function"
    },
    {
      "constant": false,
      "inputs": [
        {
          "name": "id",
          "type": "string"
        }
      ],
      "name": "removeEntity",
      "outputs": [],
      "payable": false,
      "stateMutability": "nonpayable",
      "type": "function"
    },
    {
      "constant": false,
      "inputs": [
        {
          "name": "id",
          "type": "string"
        },
        {
          "name": "platform",
          "type": "address"
        },
        {
          "name": "metadata",
          "type": "string"
        }
      ],
      "name": "registerBox",
      "outputs": [],
      "payable": false,
      "stateMutability": "nonpayable",
      "type": "function"
    },
    {
      "constant": false,
      "inputs": [
        {
          "name": "boxIds",
          "type": "string[]"
        },
        {
          "name": "actorId",
          "type": "string"
        },
        {
          "name": "platform",
          "type": "address"
        },
        {
          "name": "metadata",
          "type": "string"
        }
      ],
      "name": "registerBoxSession",
      "outputs": [],
      "payable": false,
      "stateMutability": "nonpayable",
      "type": "function"
    },
    {
      "constant": false,
      "inputs": [
        {
          "name": "boxIds",
          "type": "string[]"
        },
        {
          "name": "actorId",
          "type": "string"
        },
        {
          "name": "platform",
          "type": "address"
        },
        {
          "name": "cropId",
          "type": "string"
        },
        {
          "name": "payload",
          "type": "string"
        }
      ],
      "name": "boxProduct",
      "outputs": [],
      "payable": false,
      "stateMutability": "nonpayable",
      "type": "function"
    },
    {
      "constant": false,
      "inputs": [
        {
          "name": "boxIds",
          "type": "string[]"
        },
        {
          "name": "sourceActorId",
          "type": "string"
        },
        {
          "name": "sourcePlatform",
          "type": "address"
        },
        {
          "name": "destinationActorId",
          "type": "string"
        },
        {
          "name": "destinationPlatform",
          "type": "address"
        },
        {
          "name": "payload",
          "type": "string"
        }
      ],
      "name": "handoverFarmTransport",
      "outputs": [],
      "payable": false,
      "stateMutability": "nonpayable",
      "type": "function"
    },
    {
      "constant": false,
      "inputs": [
        {
          "name": "boxIds",
          "type": "string[]"
        },
        {
          "name": "sourceActorId",
          "type": "string"
        },
        {
          "name": "sourcePlatform",
          "type": "address"
        },
        {
          "name": "destinationActorId",
          "type": "string"
        },
        {
          "name": "destinationPlatform",
          "type": "address"
        },
        {
          "name": "payloads",
          "type": "string[]"
        }
      ],
      "name": "handoverTransportWarehouse",
      "outputs": [],
      "payable": false,
      "stateMutability": "nonpayable",
      "type": "function"
    },
    {
      "constant": false,
      "inputs": [
        {
          "name": "boxIds",
          "type": "string[]"
        },
        {
          "name": "actorId",
          "type": "string"
        },
        {
          "name": "platform",
          "type": "address"
        },
        {
          "name": "warehouseId",
          "type": "string"
        },
        {
          "name": "payloads",
          "type": "string[]"
        }
      ],
      "name": "boxWarehouse",
      "outputs": [],
      "payable": false,
      "stateMutability": "nonpayable",
      "type": "function"
    },
    {
      "constant": false,
      "inputs": [
        {
          "name": "boxIds",
          "type": "string[]"
        },
        {
          "name": "actorId",
          "type": "string"
        },
        {
          "name": "platform",
          "type": "address"
        },
        {
          "name": "warehouseId",
          "type": "string"
        },
        {
          "name": "payloads",
          "type": "string[]"
        }
      ],
      "name": "packetizeProduct",
      "outputs": [],
      "payable": false,
      "stateMutability": "nonpayable",
      "type": "function"
    },
    {
      "constant": false,
      "inputs": [
        {
          "name": "boxIds",
          "type": "string[]"
        },
        {
          "name": "sourceActorId",
          "type": "string"
        },
        {
          "name": "sourcePlatform",
          "type": "address"
        },
        {
          "name": "destinationActorId",
          "type": "string"
        },
        {
          "name": "destinationPlatform",
          "type": "address"
        },
        {
          "name": "payloads",
          "type": "string[]"
        }
      ],
      "name": "handovertWarehouseTransport",
      "outputs": [],
      "payable": false,
      "stateMutability": "nonpayable",
      "type": "function"
    },
    {
      "constant": false,
      "inputs": [
        {
          "name": "boxIds",
          "type": "string[]"
        },
        {
          "name": "sourceActorId",
          "type": "string"
        },
        {
          "name": "sourcePlatform",
          "type": "address"
        },
        {
          "name": "destinationActorId",
          "type": "string"
        },
        {
          "name": "payloads",
          "type": "string[]"
        }
      ],
      "name": "handoverTransportSupermarket",
      "outputs": [],
      "payable": false,
      "stateMutability": "nonpayable",
      "type": "function"
    },
    {
      "constant": true,
      "inputs": [
        {
          "name": "platformId",
          "type": "address"
        }
      ],
      "name": "getPlatform",
      "outputs": [
        {
          "name": "id",
          "type": "address"
        },
        {
          "name": "name",
          "type": "string"
        },
        {
          "name": "platformType",
          "type": "uint8"
        },
        {
          "name": "metadata",
          "type": "string"
        },
        {
          "name": "timestamp",
          "type": "uint256"
        }
      ],
      "payable": false,
      "stateMutability": "view",
      "type": "function"
    },
    {
      "constant": true,
      "inputs": [
        {
          "name": "_id",
          "type": "string"
        }
      ],
      "name": "getEntity",
      "outputs": [
        {
          "name": "id",
          "type": "string"
        },
        {
          "name": "name",
          "type": "string"
        },
        {
          "name": "platform",
          "type": "address"
        },
        {
          "name": "entityType",
          "type": "uint8"
        },
        {
          "name": "metadata",
          "type": "string"
        },
        {
          "name": "timestamp",
          "type": "uint256"
        }
      ],
      "payable": false,
      "stateMutability": "view",
      "type": "function"
    },
    {
      "constant": true,
      "inputs": [
        {
          "name": "actorId",
          "type": "string"
        }
      ],
      "name": "getActor",
      "outputs": [
        {
          "name": "id",
          "type": "string"
        },
        {
          "name": "platform",
          "type": "address"
        },
        {
          "name": "actorType",
          "type": "uint8"
        },
        {
          "name": "metadata",
          "type": "string"
        },
        {
          "name": "timestamp",
          "type": "uint256"
        }
      ],
      "payable": false,
      "stateMutability": "view",
      "type": "function"
    },
    {
      "constant": true,
      "inputs": [
        {
          "name": "_boxId",
          "type": "string"
        }
      ],
      "name": "getBox",
      "outputs": [
        {
          "name": "boxId",
          "type": "string"
        },
        {
          "name": "sessionId",
          "type": "bytes32"
        },
        {
          "name": "assignedPlatform",
          "type": "address"
        },
        {
          "name": "currentActorId",
          "type": "string"
        },
        {
          "name": "currentPlatform",
          "type": "address"
        },
        {
          "name": "currentState",
          "type": "uint8"
        },
        {
          "name": "boxMetadata",
          "type": "string"
        },
        {
          "name": "sessionMetadata",
          "type": "string"
        },
        {
          "name": "creationTimestamp",
          "type": "uint256"
        },
        {
          "name": "updateTimestamp",
          "type": "uint256"
        }
      ],
      "payable": false,
      "stateMutability": "view",
      "type": "function"
    }
  ],
  "bytecode": "0x608060405234801561001057600080fd5b5060008054600160a060020a033316600160a060020a03199091161790556156c7806200003e6000396000f3006080604052600436106101065763ffffffff7c0100000000000000000000000000000000000000000000000000000000600035041663070c412b811461010b5780630f4fd507146101465780632cfae234146101775780633ca3150d146101995780634f63a726146101b957806370d1af1e146101d957806376b54fa61461020f5780639b7b45e01461022f5780639cb4c0201461024f5780639e9152641461026f578063a84eb7541461028f578063b7532da8146102c0578063b8a2d895146102e0578063bf51803514610300578063c9c47b3214610320578063d1cf535c14610340578063dcd4627914610360578063e60f6a5014610380578063f37d238f146103a0575b600080fd5b34801561011757600080fd5b5061012b610126366004614c28565b6103c0565b60405161013d9695949392919061546d565b60405180910390f35b34801561015257600080fd5b506101666101613660046147a4565b61061d565b60405161013d959493929190615167565b34801561018357600080fd5b50610197610192366004614a8d565b61078c565b005b3480156101a557600080fd5b506101976101b43660046148ce565b610bd8565b3480156101c557600080fd5b506101976101d43660046149b4565b6110bd565b3480156101e557600080fd5b506101f96101f4366004614c28565b611558565b60405161013d9a999897969594939291906153be565b34801561021b57600080fd5b5061019761022a366004614d09565b611903565b34801561023b57600080fd5b5061019761024a366004614a8d565b611ab3565b34801561025b57600080fd5b5061019761026a366004614a8d565b611f83565b34801561027b57600080fd5b5061019761028a366004614c28565b6123ba565b34801561029b57600080fd5b506102af6102aa366004614c28565b6127ff565b60405161013d959493929190615347565b3480156102cc57600080fd5b506101976102db3660046148ce565b61297d565b3480156102ec57600080fd5b506101976102fb3660046147ca565b612e53565b34801561030c57600080fd5b5061019761031b366004614c5d565b612fce565b34801561032c57600080fd5b5061019761033b366004614d85565b61336d565b34801561034c57600080fd5b5061019761035b36600461485b565b613615565b34801561036c57600080fd5b5061019761037b366004614b61565b613a00565b34801561038c57600080fd5b5061019761039b366004614cae565b613df9565b3480156103ac57600080fd5b506101976103bb3660046147a4565b61406c565b60608060008060606000806003886040518082805190602001908083835b602083106103fd5780518252601f1990920191602091820191016103de565b518151602093840361010090810a60001990810180199094169390921692909217909252929094019687526040805197889003820188206002808201546004830154835460018082161590980290990190981691909104601f810185900485028b018501909352828a5290995089989389019750600160a060020a038116965060a060020a900460ff169460038901945092918891908301828280156104e45780601f106104b9576101008083540402835291602001916104e4565b820191906000526020600020905b8154815290600101906020018083116104c757829003601f168201915b5050885460408051602060026001851615610100026000190190941693909304601f8101849004840282018401909252818152959b508a9450925084019050828280156105725780601f1061054757610100808354040283529160200191610572565b820191906000526020600020905b81548152906001019060200180831161055557829003601f168201915b5050855460408051602060026001851615610100026000190190941693909304601f8101849004840282018401909252818152959a50879450925084019050828280156106005780601f106105d557610100808354040283529160200191610600565b820191906000526020600020905b8154815290600101906020018083116105e357829003601f168201915b505050505091509650965096509650965096505091939550919395565b600160a060020a03818116600090815260016020818152604080842080546002808301546004840154848801805487516101009a8216159a909a02600019011693909304601f810188900488028901880190965285885297986060988a988a988a98969093169560ff9094169360038801938691908301828280156106e35780601f106106b8576101008083540402835291602001916106e3565b820191906000526020600020905b8154815290600101906020018083116106c657829003601f168201915b5050855460408051602060026001851615610100026000190190941693909304601f8101849004840282018401909252818152959950879450925084019050828280156107715780601f1061074657610100808354040283529160200191610771565b820191906000526020600020905b81548152906001019060200180831161075457829003601f168201915b50505050509150955095509550955095505091939590929450565b60006060610798614525565b60005433600160a060020a039081169116146107d25760405160e560020a62461bcd0281526004016107c9906154d4565b60405180910390fd5b858781600160a060020a03166002826040518082805190602001908083835b602083106108105780518252601f1990920191602091820191016107f1565b51815160209384036101000a6000190180199092169116179052920194855250604051938490030190922060010154600160a060020a031692909214915061086f90505760405160e560020a62461bcd0281526004016107c9906154f4565b85518a51146108935760405160e560020a62461bcd0281526004016107c990615514565b600094505b8951851015610bcc5789858151811015156108af57fe5b9060200190602002015193506005846040518082805190602001908083835b602083106108ed5780518252601f1990920191602091820191016108ce565b518151602093840361010090810a600019908101801990941693909216929092179092529290940196875260408051978890038201882060e0890182528054895260018082018054845160029382161590970290980190971604601f810184900484028501840190925281845296508782019550919392508301828280156109b65780601f1061098b576101008083540402835291602001916109b6565b820191906000526020600020905b81548152906001019060200180831161099957829003601f168201915b5050509183525050600282810180546040805160206001841615610100026000190190931694909404601f81018390048302850183019091528084529381019390830182828015610a485780601f10610a1d57610100808354040283529160200191610a48565b820191906000526020600020905b815481529060010190602001808311610a2b57829003601f168201915b50505091835250506003820154600160a060020a038116602083015260409091019060a060020a900460ff166007811115610a7f57fe5b6007811115610a8a57fe5b815260048201805460408051602060026001851615610100026000190190941693909304601f8101849004840282018401909252818152938201939291830182828015610b185780601f10610aed57610100808354040283529160200191610b18565b820191906000526020600020905b815481529060010190602001808311610afb57829003601f168201915b50505050508152602001600582015481525050925060008360c00151111515610b565760405160e560020a62461bcd0281526004016107c9906154ae565b610b63848a8a6005614326565b7f4bb4804b9f1889ccc70428c8ad868f29b4e52dad36ef90f6be42b3c0a15a0e8983600001518a8a878a8a815181101515610b9a57fe5b906020019060200201518c42604051610bb99796959493929190615254565b60405180910390a1600190940193610898565b50505050505050505050565b60006060610be4614525565b60005433600160a060020a03908116911614610c155760405160e560020a62461bcd0281526004016107c9906154d4565b868881600160a060020a03166002826040518082805190602001908083835b60208310610c535780518252601f199092019160209182019101610c34565b51815160209384036101000a6000190180199092169116179052920194855250604051938490030190922060010154600160a060020a0316929092149150610cb290505760405160e560020a62461bcd0281526004016107c9906154f4565b868881600160a060020a03166002826040518082805190602001908083835b60208310610cf05780518252601f199092019160209182019101610cd1565b51815160209384036101000a6000190180199092169116179052920194855250604051938490030190922060010154600160a060020a0316929092149150610d4f90505760405160e560020a62461bcd0281526004016107c9906154f4565b87518d5114610d735760405160e560020a62461bcd0281526004016107c990615544565b600096505b8c518710156110ae578c87815181101515610d8f57fe5b9060200190602002015195506005866040518082805190602001908083835b60208310610dcd5780518252601f199092019160209182019101610dae565b518151602093840361010090810a600019908101801990941693909216929092179092529290940196875260408051978890038201882060e0890182528054895260018082018054845160029382161590970290980190971604601f81018490048402850184019092528184529650878201955091939250830182828015610e965780601f10610e6b57610100808354040283529160200191610e96565b820191906000526020600020905b815481529060010190602001808311610e7957829003601f168201915b5050509183525050600282810180546040805160206001841615610100026000190190931694909404601f81018390048302850183019091528084529381019390830182828015610f285780601f10610efd57610100808354040283529160200191610f28565b820191906000526020600020905b815481529060010190602001808311610f0b57829003601f168201915b50505091835250506003820154600160a060020a038116602083015260409091019060a060020a900460ff166007811115610f5f57fe5b6007811115610f6a57fe5b815260048201805460408051602060026001851615610100026000190190941693909304601f8101849004840282018401909252818152938201939291830182828015610ff85780601f10610fcd57610100808354040283529160200191610ff8565b820191906000526020600020905b815481529060010190602001808311610fdb57829003601f168201915b50505050508152602001600582015481525050945060008560c001511115156110365760405160e560020a62461bcd0281526004016107c9906154ae565b611043868b8b6003614326565b7f3c9df02a9ecd51bb4da1a5a6e98b9aad801112c280ea03acf33098292b512ddb85600001518d8d8d8d8b8e8e81518110151561107c57fe5b906020019060200201514260405161109b9897969594939291906151c1565b60405180910390a1600190960195610d78565b50505050505050505050505050565b600060606110c9614525565b60005433600160a060020a039081169116146110fa5760405160e560020a62461bcd0281526004016107c9906154d4565b868881600160a060020a03166002826040518082805190602001908083835b602083106111385780518252601f199092019160209182019101611119565b51815160209384036101000a6000190180199092169116179052920194855250604051938490030190922060010154600160a060020a031692909214915061119790505760405160e560020a62461bcd0281526004016107c9906154f4565b868881600160a060020a03166002826040518082805190602001908083835b602083106111d55780518252601f1990920191602091820191016111b6565b51815160209384036101000a6000190180199092169116179052920194855250604051938490030190922060010154600160a060020a031692909214915061123490505760405160e560020a62461bcd0281526004016107c9906154f4565b600096505b8c518710156110ae578c8781518110151561125057fe5b9060200190602002015195506005866040518082805190602001908083835b6020831061128e5780518252601f19909201916020918201910161126f565b518151602093840361010090810a600019908101801990941693909216929092179092529290940196875260408051978890038201882060e0890182528054895260018082018054845160029382161590970290980190971604601f810184900484028501840190925281845296508782019550919392508301828280156113575780601f1061132c57610100808354040283529160200191611357565b820191906000526020600020905b81548152906001019060200180831161133a57829003601f168201915b5050509183525050600282810180546040805160206001841615610100026000190190931694909404601f810183900483028501830190915280845293810193908301828280156113e95780601f106113be576101008083540402835291602001916113e9565b820191906000526020600020905b8154815290600101906020018083116113cc57829003601f168201915b50505091835250506003820154600160a060020a038116602083015260409091019060a060020a900460ff16600781111561142057fe5b600781111561142b57fe5b815260048201805460408051602060026001851615610100026000190190941693909304601f81018490048402820184019092528181529382019392918301828280156114b95780601f1061148e576101008083540402835291602001916114b9565b820191906000526020600020905b81548152906001019060200180831161149c57829003601f168201915b50505050508152602001600582015481525050945060008560c001511115156114f75760405160e560020a62461bcd0281526004016107c9906154ae565b611504868b8b6002614326565b7fdbbdeb52e7a5bf6a608d2f3fcae23a26db6c3c15c0302b6ca17304823b383d0385600001518d8d8d8d8b8e426040516115459897969594939291906151c1565b60405180910390a1600190960195611239565b6060600080606060008060608060008060008060048d6040518082805190602001908083835b6020831061159d5780518252601f19909201916020918201910161157e565b6001836020036101000a0380198251168184511680821785525050505050509050019150509081526020016040518091039020915060058d6040518082805190602001908083835b602083106116045780518252601f1990920191602091820191016115e5565b6001836020036101000a038019825116818451168082178552505050505050905001915050908152602001604051809103902090508160000181600001548360010160009054906101000a9004600160a060020a0316836002018460030160009054906101000a9004600160a060020a03168560030160149054906101000a900460ff16876002018760040189600301548960050154898054600181600116156101000203166002900480601f01602080910402602001604051908101604052809291908181526020018280546001816001161561010002031660029004801561172f5780601f106117045761010080835404028352916020019161172f565b820191906000526020600020905b81548152906001019060200180831161171257829003601f168201915b50508a5460408051602060026001851615610100026000190190941693909304601f8101849004840282018401909252818152959f508c9450925084019050828280156117bd5780601f10611792576101008083540402835291602001916117bd565b820191906000526020600020905b8154815290600101906020018083116117a057829003601f168201915b5050875460408051602060026001851615610100026000190190941693909304601f8101849004840282018401909252818152959c508994509250840190508282801561184b5780601f106118205761010080835404028352916020019161184b565b820191906000526020600020905b81548152906001019060200180831161182e57829003601f168201915b5050865460408051602060026001851615610100026000190190941693909304601f8101849004840282018401909252818152959950889450925084019050828280156118d95780601f106118ae576101008083540402835291602001916118d9565b820191906000526020600020905b8154815290600101906020018083116118bc57829003601f168201915b505050505092509b509b509b509b509b509b509b509b509b509b5050509193959799509193959799565b60005433600160a060020a039081169116146119345760405160e560020a62461bcd0281526004016107c9906154d4565b81600160a060020a03811615806119645750600160a060020a038116600090815260016020526040812060040154115b15156119855760405160e560020a62461bcd0281526004016107c990615534565b60806040519081016040528085815260200184600160a060020a03168152602001838152602001428152506004856040518082805190602001908083835b602083106119e25780518252601f1990920191602091820191016119c3565b51815160209384036101000a6000190180199092169116179052920194855250604051938490038101909320845180519194611a2394508593500190614564565b50602082810151600183018054600160a060020a031916600160a060020a0390921691909117905560408301518051611a629260028501920190614564565b50606082015181600301559050507ffc343bf325d2064dd41e3f2e1fbf210b987eac230291d336881471f9d256ba8084848442604051611aa59493929190615374565b60405180910390a150505050565b60006060611abf614525565b60005433600160a060020a03908116911614611af05760405160e560020a62461bcd0281526004016107c9906154d4565b858781600160a060020a03166002826040518082805190602001908083835b60208310611b2e5780518252601f199092019160209182019101611b0f565b51815160209384036101000a6000190180199092169116179052920194855250604051938490030190922060010154600160a060020a0316929092149150611b8d90505760405160e560020a62461bcd0281526004016107c9906154f4565b8660006002826040518082805190602001908083835b60208310611bc25780518252601f199092019160209182019101611ba3565b51815160209384036101000a6000190180199092169116179052920194855250604051938490030190922060030154929092119150611c1890505760405160e560020a62461bcd0281526004016107c990615504565b86518b5114611c3c5760405160e560020a62461bcd0281526004016107c990615544565b600095505b8a51861015611f76578a86815181101515611c5857fe5b9060200190602002015194506005856040518082805190602001908083835b60208310611c965780518252601f199092019160209182019101611c77565b518151602093840361010090810a600019908101801990941693909216929092179092529290940196875260408051978890038201882060e0890182528054895260018082018054845160029382161590970290980190971604601f81018490048402850184019092528184529650878201955091939250830182828015611d5f5780601f10611d3457610100808354040283529160200191611d5f565b820191906000526020600020905b815481529060010190602001808311611d4257829003601f168201915b5050509183525050600282810180546040805160206001841615610100026000190190931694909404601f81018390048302850183019091528084529381019390830182828015611df15780601f10611dc657610100808354040283529160200191611df1565b820191906000526020600020905b815481529060010190602001808311611dd457829003601f168201915b50505091835250506003820154600160a060020a038116602083015260409091019060a060020a900460ff166007811115611e2857fe5b6007811115611e3357fe5b815260048201805460408051602060026001851615610100026000190190941693909304601f8101849004840282018401909252818152938201939291830182828015611ec15780601f10611e9657610100808354040283529160200191611ec1565b820191906000526020600020905b815481529060010190602001808311611ea457829003601f168201915b50505050508152602001600582015481525050935060008460c00151111515611eff5760405160e560020a62461bcd0281526004016107c9906154ae565b611f0d858960006007614326565b7f10a3fb6563356121994136b0303eb832e6a34b4119ab3aa2d7bb3238f91bcf7784600001518b8b8b898c8c815181101515611f4557fe5b9060200190602002015142604051611f639796959493929190615254565b60405180910390a1600190950194611c41565b5050505050505050505050565b60006060611f8f614525565b60005433600160a060020a03908116911614611fc05760405160e560020a62461bcd0281526004016107c9906154d4565b858781600160a060020a03166002826040518082805190602001908083835b60208310611ffe5780518252601f199092019160209182019101611fdf565b51815160209384036101000a6000190180199092169116179052920194855250604051938490030190922060010154600160a060020a031692909214915061205d90505760405160e560020a62461bcd0281526004016107c9906154f4565b85518a51146120815760405160e560020a62461bcd0281526004016107c990615544565b600094505b8951851015610bcc57898581518110151561209d57fe5b9060200190602002015193506005846040518082805190602001908083835b602083106120db5780518252601f1990920191602091820191016120bc565b518151602093840361010090810a600019908101801990941693909216929092179092529290940196875260408051978890038201882060e0890182528054895260018082018054845160029382161590970290980190971604601f810184900484028501840190925281845296508782019550919392508301828280156121a45780601f10612179576101008083540402835291602001916121a4565b820191906000526020600020905b81548152906001019060200180831161218757829003601f168201915b5050509183525050600282810180546040805160206001841615610100026000190190931694909404601f810183900483028501830190915280845293810193908301828280156122365780601f1061220b57610100808354040283529160200191612236565b820191906000526020600020905b81548152906001019060200180831161221957829003601f168201915b50505091835250506003820154600160a060020a038116602083015260409091019060a060020a900460ff16600781111561226d57fe5b600781111561227857fe5b815260048201805460408051602060026001851615610100026000190190941693909304601f81018490048402820184019092528181529382019392918301828280156123065780601f106122db57610100808354040283529160200191612306565b820191906000526020600020905b8154815290600101906020018083116122e957829003601f168201915b50505050508152602001600582015481525050925060008360c001511115156123445760405160e560020a62461bcd0281526004016107c9906154ae565b612351848a8a6004614326565b7faa08b04c046f8f891c3ea561991ccb62f951d76a369ef504eff70c08b4b8030883600001518a8a878a8a81518110151561238857fe5b906020019060200201518c426040516123a79796959493929190615254565b60405180910390a1600190940193612086565b6123c26145e2565b60005433600160a060020a039081169116146123f35760405160e560020a62461bcd0281526004016107c9906154d4565b60006003836040518082805190602001908083835b602083106124275780518252601f199092019160209182019101612408565b51815160209384036101000a600019018019909216911617905292019485525060405193849003019092206004015492909211915061247d90505760405160e560020a62461bcd0281526004016107c990615554565b6003826040518082805190602001908083835b602083106124af5780518252601f199092019160209182019101612490565b518151600019602094850361010090810a82019283169219939093169190911790925294909201968752604080519788900382018820805460e0601f600260018416159099029096019091169690960493840183900490920288018501905260c08701828152909550869450928592508401828280156125705780601f1061254557610100808354040283529160200191612570565b820191906000526020600020905b81548152906001019060200180831161255357829003601f168201915b50505050508152602001600182018054600181600116156101000203166002900480601f0160208091040260200160405190810160405280929190818152602001828054600181600116156101000203166002900480156126125780601f106125e757610100808354040283529160200191612612565b820191906000526020600020905b8154815290600101906020018083116125f557829003601f168201915b5050509183525050600282810154600160a060020a038116602084015260409092019160a060020a900460ff169081111561264957fe5b600281111561265457fe5b815260038201805460408051602060026001851615610100026000190190941693909304601f81018490048402820184019092528181529382019392918301828280156126e25780601f106126b7576101008083540402835291602001916126e2565b820191906000526020600020905b8154815290600101906020018083116126c557829003601f168201915b5050505050815260200160048201548152505090506003826040518082805190602001908083835b602083106127295780518252601f19909201916020918201910161270a565b51815160209384036101000a600019018019909216911617905292019485525060405193849003019092209150600090506127648282614619565b612772600183016000614619565b60028201805474ffffffffffffffffffffffffffffffffffffffffff191690556127a0600383016000614619565b600482016000905550507f1143dff919e2434625f009b79f247ec7e07fd076c1148ddaa7c598ab580c8d4a828260200151836040015184606001518560800151426040516127f39695949392919061546d565b60405180910390a15050565b606060008060606000806002876040518082805190602001908083835b6020831061283b5780518252601f19909201916020918201910161281c565b518151602093840361010090810a600019908101801990941693909216929092179092529290940196875260408051978890038201882060018082015460038301548354600293811615909702909801909516819004601f810185900485028b018501909352828a529099508998600160a060020a038516985060a060020a90940460ff1696508801949350879183018282801561291a5780601f106128ef5761010080835404028352916020019161291a565b820191906000526020600020905b8154815290600101906020018083116128fd57829003601f168201915b5050855460408051602060026001851615610100026000190190941693909304601f8101849004840282018401909252818152959a50879450925084019050828280156107715780601f1061074657610100808354040283529160200191610771565b60006060612989614525565b60005433600160a060020a039081169116146129ba5760405160e560020a62461bcd0281526004016107c9906154d4565b868881600160a060020a03166002826040518082805190602001908083835b602083106129f85780518252601f1990920191602091820191016129d9565b51815160209384036101000a6000190180199092169116179052920194855250604051938490030190922060010154600160a060020a0316929092149150612a5790505760405160e560020a62461bcd0281526004016107c9906154f4565b868881600160a060020a03166002826040518082805190602001908083835b60208310612a955780518252601f199092019160209182019101612a76565b51815160209384036101000a6000190180199092169116179052920194855250604051938490030190922060010154600160a060020a0316929092149150612af490505760405160e560020a62461bcd0281526004016107c9906154f4565b87518d5114612b185760405160e560020a62461bcd0281526004016107c990615514565b600096505b8c518710156110ae578c87815181101515612b3457fe5b9060200190602002015195506005866040518082805190602001908083835b60208310612b725780518252601f199092019160209182019101612b53565b518151602093840361010090810a600019908101801990941693909216929092179092529290940196875260408051978890038201882060e0890182528054895260018082018054845160029382161590970290980190971604601f81018490048402850184019092528184529650878201955091939250830182828015612c3b5780601f10612c1057610100808354040283529160200191612c3b565b820191906000526020600020905b815481529060010190602001808311612c1e57829003601f168201915b5050509183525050600282810180546040805160206001841615610100026000190190931694909404601f81018390048302850183019091528084529381019390830182828015612ccd5780601f10612ca257610100808354040283529160200191612ccd565b820191906000526020600020905b815481529060010190602001808311612cb057829003601f168201915b50505091835250506003820154600160a060020a038116602083015260409091019060a060020a900460ff166007811115612d0457fe5b6007811115612d0f57fe5b815260048201805460408051602060026001851615610100026000190190941693909304601f8101849004840282018401909252818152938201939291830182828015612d9d5780601f10612d7257610100808354040283529160200191612d9d565b820191906000526020600020905b815481529060010190602001808311612d8057829003601f168201915b50505050508152602001600582015481525050945060008560c00151111515612ddb5760405160e560020a62461bcd0281526004016107c9906154ae565b612de8868b8b6006614326565b7f8ed82236459d06d79ead3bf406da4afed398d88c786e71cc2b8da7baaf4cbcbe85600001518d8d8d8d8b8e8e815181101515612e2157fe5b9060200190602002015142604051612e409897969594939291906151c1565b60405180910390a1600190960195612b1d565b60005433600160a060020a03908116911614612e845760405160e560020a62461bcd0281526004016107c9906154d4565b600160a060020a03841660009081526001602052604090206004015415612ec05760405160e560020a62461bcd0281526004016107c990615524565b60a06040519081016040528085600160a060020a03168152602001848152602001836002811115612eed57fe5b8152602080820184905242604092830152600160a060020a038781166000908152600180845293902084518154600160a060020a03191692169190911781558382015180519193612f449390850192910190614564565b5060408201518160020160006101000a81548160ff02191690836002811115612f6957fe5b021790555060608201518051612f89916003840191602090910190614564565b50608082015181600401559050507f974b2c6e12bf613066469c5797e1b2ae4313a954d8cc53fba6085ecfcb0c498b8484848442604051611aa5959493929190615167565b612fd6614660565b60005433600160a060020a039081169116146130075760405160e560020a62461bcd0281526004016107c9906154d4565b818381600160a060020a03166002826040518082805190602001908083835b602083106130455780518252601f199092019160209182019101613026565b51815160209384036101000a6000190180199092169116179052920194855250604051938490030190922060010154600160a060020a03169290921491506130a490505760405160e560020a62461bcd0281526004016107c9906154f4565b6002856040518082805190602001908083835b602083106130d65780518252601f1990920191602091820191016130b7565b518151600019602094850361010090810a82019283169219939093169190911790925294909201968752604080519788900382018820805460c0601f600260018416159099029096019091169690960493840183900490920288018501905260a08701828152909550869450928592508401828280156131975780601f1061316c57610100808354040283529160200191613197565b820191906000526020600020905b81548152906001019060200180831161317a57829003601f168201915b50505091835250506001820154600160a060020a038116602083015260409091019060a060020a900460ff1660038111156131ce57fe5b60038111156131d957fe5b8152600282810180546040805160206001841615610100026000190190931694909404601f810183900483028501830190915280845293810193908301828280156132655780601f1061323a57610100808354040283529160200191613265565b820191906000526020600020905b81548152906001019060200180831161324857829003601f168201915b5050505050815260200160038201548152505092506002856040518082805190602001908083835b602083106132ac5780518252601f19909201916020918201910161328d565b51815160209384036101000a600019018019909216911617905292019485525060405193849003019092209150600090506132e78282614619565b60018201805474ffffffffffffffffffffffffffffffffffffffffff19169055613315600283016000614619565b600382016000905550507fde37632ed3819ddb62d50e122bd1732947b856012290bf1815f36b28554c583f8585856040015186606001514260405161335e959493929190615347565b60405180910390a15050505050565b60005433600160a060020a0390811691161461339e5760405160e560020a62461bcd0281526004016107c9906154d4565b82600160a060020a03811615806133ce5750600160a060020a038116600090815260016020526040812060040154115b15156133ef5760405160e560020a62461bcd0281526004016107c990615534565b6003866040518082805190602001908083835b602083106134215780518252601f199092019160209182019101613402565b51815160209384036101000a600019018019909216911617905292019485525060405193849003019092206004015415915061347490505760405160e560020a62461bcd0281526004016107c9906154c4565b60c06040519081016040528087815260200186815260200185600160a060020a031681526020018460028111156134a757fe5b8152602001838152602001428152506003876040518082805190602001908083835b602083106134e85780518252601f1990920191602091820191016134c9565b51815160209384036101000a600019018019909216911617905292019485525060405193849003810190932084518051919461352994508593500190614564565b5060208281015180516135429260018501920190614564565b50604082015160028281018054600160a060020a031916600160a060020a03909316929092178083556060850151929174ff0000000000000000000000000000000000000000199091169060a060020a90849081111561359e57fe5b0217905550608082015180516135be916003840191602090910190614564565b5060a082015181600401559050507f6162daf2ec2ae296ff9c6512a17d0bade6c6356d8700515d17d665676dbddc428686868686426040516136059695949392919061546d565b60405180910390a1505050505050565b60008054606090829033600160a060020a0390811691161461364c5760405160e560020a62461bcd0281526004016107c9906154d4565b848681600160a060020a03166002826040518082805190602001908083835b6020831061368a5780518252601f19909201916020918201910161366b565b51815160209384036101000a6000190180199092169116179052920194855250604051938490030190922060010154600160a060020a03169290921491506136e990505760405160e560020a62461bcd0281526004016107c9906154f4565b600094505b88518510156139f557888581518110151561370557fe5b906020019060200201519350838888426040516020018085805190602001908083835b602083106137475780518252601f199092019160209182019101613728565b51815160209384036101000a600019018019909216911617905287519190930192870191508083835b6020831061378f5780518252601f199092019160209182019101613770565b6001836020036101000a03801982511681845116808217855250505050505090500183600160a060020a0316600160a060020a03166c010000000000000000000000000281526014018281526020019450505050506040516020818303038152906040526040518082805190602001908083835b602083106138225780518252601f199092019160209182019101613803565b51815160209384036101000a60001901801990921691161790526040805192909401829003822060e0830185528083529082018a90529281018d9052600160a060020a038c1660608201529196509092505060808201905060008152602001878152602001428152506005856040518082805190602001908083835b602083106138bd5780518252601f19909201916020918201910161389e565b51815160209384036101000a600019018019909216911617905292019485525060405193849003810190932084518155848401518051919461390794506001860193500190614564565b5060408201518051613923916002840191602090910190614564565b506060820151600382018054600160a060020a031916600160a060020a03909216919091178082556080840151919074ff0000000000000000000000000000000000000000191660a060020a83600781111561397b57fe5b021790555060a0820151805161399b916004840191602090910190614564565b5060c082015181600501559050507fd7c32dd0858052dd83191f1c0f18f57b81bee49179f8e4af2b6d1d82f75c293f83858a8a8a426040516139e2969594939291906152d8565b60405180910390a16001909401936136ee565b505050505050505050565b60006060613a0c614525565b60005433600160a060020a03908116911614613a3d5760405160e560020a62461bcd0281526004016107c9906154d4565b858781600160a060020a03166002826040518082805190602001908083835b60208310613a7b5780518252601f199092019160209182019101613a5c565b51815160209384036101000a6000190180199092169116179052920194855250604051938490030190922060010154600160a060020a0316929092149150613ada90505760405160e560020a62461bcd0281526004016107c9906154f4565b600094505b8951851015610bcc578985815181101515613af657fe5b9060200190602002015193506005846040518082805190602001908083835b60208310613b345780518252601f199092019160209182019101613b15565b518151602093840361010090810a600019908101801990941693909216929092179092529290940196875260408051978890038201882060e0890182528054895260018082018054845160029382161590970290980190971604601f81018490048402850184019092528184529650878201955091939250830182828015613bfd5780601f10613bd257610100808354040283529160200191613bfd565b820191906000526020600020905b815481529060010190602001808311613be057829003601f168201915b5050509183525050600282810180546040805160206001841615610100026000190190931694909404601f81018390048302850183019091528084529381019390830182828015613c8f5780601f10613c6457610100808354040283529160200191613c8f565b820191906000526020600020905b815481529060010190602001808311613c7257829003601f168201915b50505091835250506003820154600160a060020a038116602083015260409091019060a060020a900460ff166007811115613cc657fe5b6007811115613cd157fe5b815260048201805460408051602060026001851615610100026000190190941693909304601f8101849004840282018401909252818152938201939291830182828015613d5f5780601f10613d3457610100808354040283529160200191613d5f565b820191906000526020600020905b815481529060010190602001808311613d4257829003601f168201915b50505050508152602001600582015481525050925060008360c00151111515613d9d5760405160e560020a62461bcd0281526004016107c9906154ae565b613daa848a8a6001614326565b82516040517f058e45b4e758430692487aa1c1c8671f85c6fc22d31f3b17156bc5654441c24991613de6918c908c9089908c908e904290615254565b60405180910390a1600190940193613adf565b60005433600160a060020a03908116911614613e2a5760405160e560020a62461bcd0281526004016107c9906154d4565b82600160a060020a0381161580613e5a5750600160a060020a038116600090815260016020526040812060040154115b1515613e7b5760405160e560020a62461bcd0281526004016107c990615534565b6002856040518082805190602001908083835b60208310613ead5780518252601f199092019160209182019101613e8e565b51815160209384036101000a6000190180199092169116179052920194855250604051938490030190922060030154159150613f0090505760405160e560020a62461bcd0281526004016107c9906154e4565b60a06040519081016040528086815260200185600160a060020a03168152602001846003811115613f2d57fe5b8152602001838152602001428152506002866040518082805190602001908083835b60208310613f6e5780518252601f199092019160209182019101613f4f565b51815160209384036101000a6000190180199092169116179052920194855250604051938490038101909320845180519194613faf94508593500190614564565b506020820151600182018054600160a060020a031916600160a060020a03909216919091178082556040840151919074ff0000000000000000000000000000000000000000191660a060020a83600381111561400757fe5b021790555060608201518051614027916002840191602090910190614564565b50608082015181600301559050507fed463584a2f8424bda77e1acfe9b4f9105d0f092939a5f6de76dfb35d08b1058858585854260405161335e959493929190615347565b614074614681565b60005433600160a060020a039081169116146140a55760405160e560020a62461bcd0281526004016107c9906154d4565b81600160a060020a03811615806140d55750600160a060020a038116600090815260016020526040812060040154115b15156140f65760405160e560020a62461bcd0281526004016107c990615534565b600160a060020a03838116600090815260016020818152604092839020835160a0810185528154909516855280830180548551600261010096831615969096026000190190911694909404601f8101849004840285018401909552848452909385830193928301828280156141ac5780601f10614181576101008083540402835291602001916141ac565b820191906000526020600020905b81548152906001019060200180831161418f57829003601f168201915b505050918352505060028281015460209092019160ff16908111156141cd57fe5b60028111156141d857fe5b815260038201805460408051602060026001851615610100026000190190941693909304601f81018490048402820184019092528181529382019392918301828280156142665780601f1061423b57610100808354040283529160200191614266565b820191906000526020600020905b81548152906001019060200180831161424957829003601f168201915b505050918352505060049190910154602091820152600160a060020a0385166000908152600191829052604081208054600160a060020a0319168155929450906142b290830182614619565b60028201805460ff191690556142cc600383016000614619565b600482016000905550507f74ec8cb18b120348a97d936f14d20c78d3577702b4986677848fe108d8377ddc8383602001518460400151856060015142604051614319959493929190615167565b60405180910390a1505050565b826005856040518082805190602001908083835b602083106143595780518252601f19909201916020918201910161433a565b51815160209384036101000a6000190180199092169116179052920194855250604051938490038101909320845161439e956002909201949190910192509050614564565b50816005856040518082805190602001908083835b602083106143d25780518252601f1990920191602091820191016143b3565b51815160209384036101000a600019018019909216911617905292019485525060405193849003810184206003018054600160a060020a031916600160a060020a039690961695909517909455505085518392600592889290918291908401908083835b602083106144555780518252601f199092019160209182019101614436565b51815160209384036101000a60001901801990921691161790529201948552506040519384900301909220600301805490925074ff00000000000000000000000000000000000000001916905060a060020a8360078111156144b357fe5b0217905550426005856040518082805190602001908083835b602083106144eb5780518252601f1990920191602091820191016144cc565b51815160209384036101000a6000190180199092169116179052920194855250604051938490030190922060050192909255505050505050565b6040805160e08101825260008082526060602083018190529282018390529181018290529060808201905b815260200160608152602001600081525090565b828054600181600116156101000203166002900490600052602060002090601f016020900481019282601f106145a557805160ff19168380011785556145d2565b828001600101855582156145d2579182015b828111156145d25782518255916020019190600101906145b7565b506145de9291506146a1565b5090565b60c06040519081016040528060608152602001606081526020016000600160a060020a031681526020016000600281111561455057fe5b50805460018160011615610100020316600290046000825580601f1061463f575061465d565b601f01602090049060005260206000209081019061465d91906146a1565b50565b6040805160a081018252606081526000602082018190529091820190614550565b6040805160a0810182526000808252606060208301529091820190614550565b6146bb91905b808211156145de57600081556001016146a7565b90565b60006146ca82356155d8565b9392505050565b6000601f820183136146e257600080fd5b81356146f56146f08261558b565b615564565b81815260209384019390925082018360005b83811015614733578135860161471d8882614755565b8452506020928301929190910190600101614707565b5050505092915050565b60006146ca8235615608565b60006146ca8235615617565b6000601f8201831361476657600080fd5b81356147746146f0826155ac565b9150808252602083016020830185838301111561479057600080fd5b61479b838284615647565b50505092915050565b6000602082840312156147b657600080fd5b60006147c284846146be565b949350505050565b600080600080608085870312156147e057600080fd5b60006147ec87876146be565b945050602085013567ffffffffffffffff81111561480957600080fd5b61481587828801614755565b935050604061482687828801614749565b925050606085013567ffffffffffffffff81111561484357600080fd5b61484f87828801614755565b91505092959194509250565b6000806000806080858703121561487157600080fd5b843567ffffffffffffffff81111561488857600080fd5b614894878288016146d1565b945050602085013567ffffffffffffffff8111156148b157600080fd5b6148bd87828801614755565b9350506040614826878288016146be565b60008060008060008060c087890312156148e757600080fd5b863567ffffffffffffffff8111156148fe57600080fd5b61490a89828a016146d1565b965050602087013567ffffffffffffffff81111561492757600080fd5b61493389828a01614755565b955050604061494489828a016146be565b945050606087013567ffffffffffffffff81111561496157600080fd5b61496d89828a01614755565b935050608061497e89828a016146be565b92505060a087013567ffffffffffffffff81111561499b57600080fd5b6149a789828a016146d1565b9150509295509295509295565b60008060008060008060c087890312156149cd57600080fd5b863567ffffffffffffffff8111156149e457600080fd5b6149f089828a016146d1565b965050602087013567ffffffffffffffff811115614a0d57600080fd5b614a1989828a01614755565b9550506040614a2a89828a016146be565b945050606087013567ffffffffffffffff811115614a4757600080fd5b614a5389828a01614755565b9350506080614a6489828a016146be565b92505060a087013567ffffffffffffffff811115614a8157600080fd5b6149a789828a01614755565b600080600080600060a08688031215614aa557600080fd5b853567ffffffffffffffff811115614abc57600080fd5b614ac8888289016146d1565b955050602086013567ffffffffffffffff811115614ae557600080fd5b614af188828901614755565b9450506040614b02888289016146be565b935050606086013567ffffffffffffffff811115614b1f57600080fd5b614b2b88828901614755565b925050608086013567ffffffffffffffff811115614b4857600080fd5b614b54888289016146d1565b9150509295509295909350565b600080600080600060a08688031215614b7957600080fd5b853567ffffffffffffffff811115614b9057600080fd5b614b9c888289016146d1565b955050602086013567ffffffffffffffff811115614bb957600080fd5b614bc588828901614755565b9450506040614bd6888289016146be565b935050606086013567ffffffffffffffff811115614bf357600080fd5b614bff88828901614755565b925050608086013567ffffffffffffffff811115614c1c57600080fd5b614b5488828901614755565b600060208284031215614c3a57600080fd5b813567ffffffffffffffff811115614c5157600080fd5b6147c284828501614755565b60008060408385031215614c7057600080fd5b823567ffffffffffffffff811115614c8757600080fd5b614c9385828601614755565b9250506020614ca4858286016146be565b9150509250929050565b60008060008060808587031215614cc457600080fd5b843567ffffffffffffffff811115614cdb57600080fd5b614ce787828801614755565b9450506020614cf8878288016146be565b93505060406148268782880161473d565b600080600060608486031215614d1e57600080fd5b833567ffffffffffffffff811115614d3557600080fd5b614d4186828701614755565b9350506020614d52868287016146be565b925050604084013567ffffffffffffffff811115614d6f57600080fd5b614d7b86828701614755565b9150509250925092565b600080600080600060a08688031215614d9d57600080fd5b853567ffffffffffffffff811115614db457600080fd5b614dc088828901614755565b955050602086013567ffffffffffffffff811115614ddd57600080fd5b614de988828901614755565b9450506040614dfa888289016146be565b9350506060614bff88828901614749565b614e14816155d8565b82525050565b614e14816146bb565b614e1481615626565b614e1481615631565b614e148161563c565b6000614e49826155d4565b808452614e5d816020860160208601615653565b614e6681615683565b9093016020019392505050565b601f81527f426f78206d757374206861766520616e206163746976652073657373696f6e00602082015260400190565b601c81527f456e7469747920697320616c7265616479207265676973746572656400000000602082015260400190565b602a81527f4f6e6c79207468652073757065727669736f722063616e2063616c6c2074686960208201527f732066756e6374696f6e00000000000000000000000000000000000000000000604082015260600190565b601b81527f4163746f7220697320616c726561647920726567697374657265640000000000602082015260400190565b603481527f4f6e6c79206163746f7273206f6620676976656e20706c6174666f726d20636160208201527f6e2063616c6c20746869732066756e6374696f6e000000000000000000000000604082015260600190565b602d81527f4f6e6c792072656769737465726564206163746f72732063616e2063616c6c2060208201527f746869732066756e6374696f6e00000000000000000000000000000000000000604082015260600190565b602a81527f4c656e677468206f6620626f786573206d757374206d61746368207061796c6f60208201527f616473206c656e67746800000000000000000000000000000000000000000000604082015260600190565b601b81527f506c6174666f726d20616c726561647920726567697374657265640000000000602082015260400190565b603081527f4f6e6c79207265676973746572656420706c6174666f726d732063616e20636160208201527f6c6c20746869732066756e6374696f6e00000000000000000000000000000000604082015260600190565b602a81527f6c656e677468206f6620626f786573206d757374206d61746368207061796c6f60208201527f616473206c656e67746800000000000000000000000000000000000000000000604082015260600190565b601581527f456e7469747920646f6573206e6f742065786973740000000000000000000000602082015260400190565b60a081016151758288614e0b565b81810360208301526151878187614e3e565b90506151966040830186614e35565b81810360608301526151a88185614e3e565b90506151b76080830184614e1a565b9695505050505050565b61010081016151d0828b614e1a565b81810360208301526151e2818a614e3e565b90506151f16040830189614e0b565b81810360608301526152038188614e3e565b90506152126080830187614e0b565b81810360a08301526152248186614e3e565b905081810360c08301526152388185614e3e565b905061524760e0830184614e1a565b9998505050505050505050565b60e08101615262828a614e1a565b81810360208301526152748189614e3e565b90506152836040830188614e0b565b81810360608301526152958187614e3e565b905081810360808301526152a98186614e3e565b905081810360a08301526152bd8185614e3e565b90506152cc60c0830184614e1a565b98975050505050505050565b60c081016152e68289614e1a565b81810360208301526152f88188614e3e565b9050818103604083015261530c8187614e3e565b905061531b6060830186614e0b565b818103608083015261532d8185614e3e565b905061533c60a0830184614e1a565b979650505050505050565b60a080825281016153588188614e3e565b90506153676020830187614e0b565b6151966040830186614e23565b608080825281016153858187614e3e565b90506153946020830186614e0b565b81810360408301526153a68185614e3e565b90506153b56060830184614e1a565b95945050505050565b61014080825281016153d0818d614e3e565b90506153df602083018c614e1a565b6153ec604083018b614e0b565b81810360608301526153fe818a614e3e565b905061540d6080830189614e0b565b61541a60a0830188614e2c565b81810360c083015261542c8187614e3e565b905081810360e08301526154408186614e3e565b9050615450610100830185614e1a565b61545e610120830184614e1a565b9b9a5050505050505050505050565b60c0808252810161547e8189614e3e565b905081810360208301526154928188614e3e565b90506154a16040830187614e0b565b61531b6060830186614e35565b602080825281016154be81614e73565b92915050565b602080825281016154be81614ea3565b602080825281016154be81614ed3565b602080825281016154be81614f29565b602080825281016154be81614f59565b602080825281016154be81614faf565b602080825281016154be81615005565b602080825281016154be8161505b565b602080825281016154be8161508b565b602080825281016154be816150e1565b602080825281016154be81615137565b60405181810167ffffffffffffffff8111828210171561558357600080fd5b604052919050565b600067ffffffffffffffff8211156155a257600080fd5b5060209081020190565b600067ffffffffffffffff8211156155c357600080fd5b506020601f91909101601f19160190565b5190565b600160a060020a031690565b6000600482106145de57fe5b6000600882106145de57fe5b6000600382106145de57fe5b6000600482106145de57600080fd5b6000600382106145de57600080fd5b60006154be826155e4565b60006154be826155f0565b60006154be826155fc565b82818337506000910152565b60005b8381101561566e578181015183820152602001615656565b8381111561567d576000848401525b50505050565b601f01601f1916905600a265627a7a723058209ff8bb3c874eac6391612abf41d86fc2ebca035693690de771ec05ef45fcdc916c6578706572696d656e74616cf50037",
  "source": "pragma solidity ^0.4.22;\npragma experimental ABIEncoderV2;\n\ncontract FoodChain {\n    enum BoxStates {\n        ASSIGNED,\n        BOX_PRODUCT, \n        HANDOVER_FARM_TRANSPORT,\n        HANDOVER_TRANSPORT_WAREHOUSE,\n        BOX_WAREHOUSE,\n        BOX_WAREHOUSE_PACKETIZED,\n        HANDOVER_WAREHOUSE_TRANSPORT,\n        HANDOVER_TRANSPORT_SUPERMARKET\n    }\n    \n    enum EntityTypes { FARM, TRANSPORT, WAREHOUSE }\n    enum PlatformTypes { FARMING, TRANSPORT, WAREHOUSE }\n    enum ActorTypes { PRODUCER, TRANSPORTER, WAREHOUSE_EMPLOYEE, SM_EMPLOYEE }\n    \n    struct Entity {\n        string id;                  // hashed id of either the crop/transport/warehouse id\n        string name;\n        address platform;\n        EntityTypes entityType;\n        string metadata;\n        uint timestamp;\n    }\n    \n    struct Platform {\n        address id;                 // wallet address (public key)\n        string name;\n        PlatformTypes platformType;\n        string metadata;\n        uint timestamp;\n    }\n    \n    struct Actor {\n        string id;                  // keycloak uuid\n        address platform;           // platform of the actor\n        ActorTypes actorType;\n        string metadata;\n        uint timestamp;\n    }\n    \n    struct Box {\n        string id;                  // rfid\n        address platform;           // assigned platform\n        string metadata;\n        uint timestamp;\n    }\n    \n    struct BoxSession {\n        bytes32 id;      // The generated sessionId\n        string boxId;    // The id of the box\n        string actorId;  // The actor that is holding the box\n        address platform; // The platform  that has the box\n        BoxStates state; // The transition state of the box\n        string metadata; // Metadata of the box session\n        uint timestamp;  // Session timestamp\n    }\n    \n    address owner;\n    mapping(address => Platform) platforms;\n    mapping(string => Actor) actors;\n    mapping(string => Entity) entities;\n    mapping(string => Box) boxes;\n    mapping(string => BoxSession) boxSessions;  // Maps a boxId to a session\n    \n    event LogPlatformRegistered(address id, string name, PlatformTypes platformType, string metadata, uint timestamp);\n    event LogPlatformRemoved(address id, string name, PlatformTypes platformType, string metadata, uint timestamp);\n    event LogActorRegistered(string id, address platform, ActorTypes actorType, string metadata, uint timestamp);\n    event LogActorRemoved(string id, address platform, ActorTypes actorType, string metadata, uint timestamp);\n    event LogEntityRegistered(string id, string name, address platform, EntityTypes entityType, string metadata, uint timestamp);\n    event LogEntityRemoved(string id, string name, address platform, EntityTypes entityType, string metadata, uint timestamp);\n    event LogBoxRegistered(string id, address platform, string metadata, uint timestamp);\n    event LogBoxSession(bytes32 sessionId, string boxId, string actorId, address platform, string metadata, uint timestamp);\n    event LogBoxProduct(bytes32 sessionId, string actorId, address platform, string boxId, string payload, string cropId, uint timestamp);\n    event LogBoxWarehouse(bytes32 sessionId, string actorId, address platform, string boxId, string payload, string warehouseId, uint timestamp);\n    event LogPacketizeProduct(bytes32 sessionId, string actorId, address platform, string boxId, string payload, string warehouseId, uint timestamp);\n    event LogHandoverFarmTransport(bytes32 sessionId, string sourceActorId, address sourcePlatform, string destinationActorId, address destinationPlatform, string boxId, string payload, uint timestamp);\n    event LogHandoverTransportWarehouse(bytes32 sessionId, string sourceActorId, address sourcePlatform, string destinationActorId, address destinationPlatform, string boxId, string payload, uint timestamp);\n    event LogHandoverWarehouseTransport(bytes32 sessionId, string sourceActorId, address sourcePlatform, string destinationActorId, address destinationPlatform, string boxId, string payload, uint timestamp);\n    event LogHandoverTransportSupermarket(bytes32 sessionId, string sourceActorId, address sourcePlatform, string destinationActorId, string boxId, string payload, uint timestamp);\n    \n    \n    constructor() public {\n        owner = msg.sender; // supervisor address\n    }\n\n    modifier onlyOwner() {\n        require(\n            msg.sender == owner,\n            \"Only the supervisor can call this function\"\n        );\n        _;\n    }\n    \n    modifier onlyPlatform(address platform) {\n        require(\n            platform == address(0) || platforms[platform].timestamp > 0,\n            \"Only registered platforms can call this function\"\n        );\n        _;\n    }\n    \n    modifier onlyActor(string actorId) {\n        require(\n            actors[actorId].timestamp > 0,\n            \"Only registered actors can call this function\"\n        );\n        _;\n    }\n    \n    modifier onlyPlatformActor(address platform, string actorId) {\n        require(\n            actors[actorId].platform == platform,\n            \"Only actors of given platform can call this function\"\n        );\n        _;\n    }\n    \n    modifier onlyBox(string boxId) {\n        require(\n            boxes[boxId].timestamp > 0,\n            \"Only registered boxes can call this function\"\n        );\n        _;\n    }\n    \n    modifier onlyBoxSession(string boxId) {\n        require(\n            boxSessions[boxId].timestamp > 0,\n            \"Only boxes with active session can call this function\"\n        );\n        _;\n    }\n    \n    function updateBoxState(\n        string boxId,\n        string actorId,\n        address platform,\n        BoxStates state\n    ) internal {\n        boxSessions[boxId].actorId = actorId;\n        boxSessions[boxId].platform = platform;\n        boxSessions[boxId].state = state;\n        boxSessions[boxId].timestamp = now;\n    }\n    \n    // Registers a new IoT platform\n    function registerPlatform(\n        address id, \n        string name, \n        PlatformTypes platformType, \n        string metadata\n    ) public onlyOwner {\n        require(platforms[id].timestamp == 0, \"Platform already registered\");\n        platforms[id] = Platform(id, name, platformType, metadata, now);\n        emit LogPlatformRegistered(id, name, platformType, metadata, now);\n    }\n    \n    // Removes a registered IoT platform\n    function removePlatform(\n        address id\n    ) public onlyOwner onlyPlatform(id) {\n        Platform memory platform = platforms[id];\n        delete platforms[id];\n        emit LogPlatformRemoved(id, platform.name, platform.platformType, platform.metadata, now);\n    }\n    \n    // Registers an actor for an IoT Platform\n    function registerActor(        \n        string id,\n        address platform,\n        ActorTypes actorType,\n        string metadata\n    ) public onlyOwner onlyPlatform(platform){\n        require(actors[id].timestamp == 0, \"Actor is already registered\");\n        actors[id] = Actor(id, platform, actorType, metadata, now);\n        emit LogActorRegistered(id, platform, actorType, metadata, now);        \n    }\n    \n    // Removes an actor\n    function removeActor(\n        string id,\n        address platform\n    ) public onlyOwner onlyPlatformActor(platform, id) {\n        Actor memory actor = actors[id];\n        delete actors[id];\n        emit LogActorRemoved(id, platform, actor.actorType, actor.metadata, now);\n    }\n    \n    // Registers a new entity\n    function registerEntity(\n        string id,\n        string name,\n        address platform,\n        EntityTypes entityType,\n        string metadata\n    ) public onlyOwner onlyPlatform(platform) {\n        require(entities[id].timestamp == 0, \"Entity is already registered\");\n        entities[id] = Entity(id, name, platform, entityType, metadata, now);\n        emit LogEntityRegistered(id, name, platform, entityType, metadata, now);\n    }\n    \n    // Removes an entity\n    function removeEntity(\n        string id\n    ) public onlyOwner {\n        require(entities[id].timestamp > 0, \"Entity does not exist\");\n        Entity memory entity = entities[id];\n        delete entities[id];\n        emit LogEntityRemoved(id, entity.name, entity.platform, entity.entityType, entity.metadata, now);\n    }\n    \n    // Registers a new box for a Platform\n    function registerBox(\n        string id,\n        address platform,\n        string metadata\n    ) public onlyOwner onlyPlatform(platform){\n        boxes[id] = Box(id, platform, metadata, now);\n        emit LogBoxRegistered(id, platform, metadata, now);\n    }\n    \n    // Registers multiple boxes to a given actor \n    function registerBoxSession(\n        string[] boxIds, \n        string actorId,\n        address platform,\n        string metadata\n    ) public onlyOwner onlyPlatformActor(platform, actorId){\n        for(uint i=0; i<boxIds.length; i++) {\n            string memory boxId = boxIds[i];\n            \n            // Generate a unique session id\n            bytes32 sessionId = keccak256(\n                abi.encodePacked(boxId, actorId, platform, now)\n            );\n            \n            boxSessions[boxId] = BoxSession(sessionId, boxId, actorId, platform, BoxStates.ASSIGNED, metadata, now);\n            emit LogBoxSession(sessionId, boxId, actorId, platform, metadata, now);\n        }\n    }\n    \n    // Register farm product information to the given boxes\n    function boxProduct(\n        string[] boxIds,\n        string actorId,\n        address platform,\n        string cropId,\n        string payload\n    ) public onlyOwner onlyPlatformActor(platform, actorId) {\n        for(uint i=0; i<boxIds.length; i++){\n            string memory boxId = boxIds[i];\n            BoxSession memory boxSession = boxSessions[boxId];\n            \n            require(\n                boxSession.timestamp > 0,\n                \"Box must have an active session\"\n            );\n            \n            updateBoxState(boxId, actorId, platform, BoxStates.BOX_PRODUCT);\n            emit LogBoxProduct(boxSession.id, actorId, platform, boxId, payload, cropId, now);\n        }\n    }\n    \n    // Handover between a producer actor and a transport actor\n    function handoverFarmTransport(\n        string[] boxIds,\n        string sourceActorId, \n        address sourcePlatform, \n        string destinationActorId, \n        address destinationPlatform, \n        string payload\n    ) public onlyOwner onlyPlatformActor(sourcePlatform, sourceActorId) onlyPlatformActor(destinationPlatform, destinationActorId) {\n        for(uint i=0; i<boxIds.length; i++) {\n            string memory boxId = boxIds[i];\n            BoxSession memory boxSession = boxSessions[boxId];\n            \n            require(\n                boxSession.timestamp > 0,\n                \"Box must have an active session\"\n            );\n            \n            updateBoxState(boxId, destinationActorId, destinationPlatform, BoxStates.HANDOVER_FARM_TRANSPORT);\n            emit LogHandoverFarmTransport(boxSession.id, sourceActorId, sourcePlatform, destinationActorId, destinationPlatform, boxId, payload, now);\n        }\n    }\n    \n    // Handover between a transport actor and a warehouse actor\n    function handoverTransportWarehouse(\n        string[] boxIds,\n        string sourceActorId, \n        address sourcePlatform, \n        string destinationActorId, \n        address destinationPlatform, \n        string[] payloads\n    ) public onlyOwner onlyPlatformActor(sourcePlatform, sourceActorId) onlyPlatformActor(destinationPlatform, destinationActorId) {\n        require(\n            boxIds.length == payloads.length,\n            \"length of boxes must match payloads length\"\n        );\n\n        for(uint i=0; i<boxIds.length; i++) {\n            string memory boxId = boxIds[i];\n            BoxSession memory boxSession = boxSessions[boxId];\n            \n            require(\n                boxSession.timestamp > 0,\n                \"Box must have an active session\"\n            );\n            \n            updateBoxState(boxId, destinationActorId, destinationPlatform, BoxStates.HANDOVER_TRANSPORT_WAREHOUSE);\n            emit LogHandoverTransportWarehouse(boxSession.id, sourceActorId, sourcePlatform, destinationActorId, destinationPlatform, boxId, payloads[i], now);\n        }\n    }\n    \n    // Register warehouse information about the given boxes\n    function boxWarehouse(\n        string[] boxIds,\n        string actorId,\n        address platform,\n        string warehouseId,\n        string[] payloads\n    ) public onlyOwner onlyPlatformActor(platform, actorId) {\n        require(\n            boxIds.length == payloads.length,\n            \"length of boxes must match payloads length\"\n        );\n        \n        for(uint i=0; i<boxIds.length; i++) {\n            string memory boxId = boxIds[i];\n            BoxSession memory boxSession = boxSessions[boxId];\n            \n            require(\n                boxSession.timestamp > 0,\n                \"Box must have an active session\"\n            );\n            \n            updateBoxState(boxId, actorId, platform, BoxStates.BOX_WAREHOUSE);\n            emit LogBoxWarehouse(boxSession.id, actorId, platform, boxId, payloads[i], warehouseId, now);\n        }\n    }\n    \n    // Register packetazation information about the boxes\n    function packetizeProduct(\n        string[] boxIds,\n        string actorId,\n        address platform,\n        string warehouseId,\n        string[] payloads\n    ) public onlyOwner onlyPlatformActor(platform, actorId) {\n        require(\n            boxIds.length == payloads.length,\n            \"Length of boxes must match payloads length\"\n        );\n        \n        for(uint i=0; i<boxIds.length; i++) {\n            string memory boxId = boxIds[i];\n            BoxSession memory boxSession = boxSessions[boxId];\n            \n            require(\n                boxSession.timestamp > 0,\n                \"Box must have an active session\"\n            );\n            \n            updateBoxState(boxId, actorId, platform, BoxStates.BOX_WAREHOUSE_PACKETIZED);\n            emit LogPacketizeProduct(boxSession.id, actorId, platform, boxId, payloads[i], warehouseId, now);\n        }\n    }\n    \n    // Handover between a warehouse actor and a transport actor\n    function handovertWarehouseTransport(\n        string[] boxIds,\n        string sourceActorId, \n        address sourcePlatform, \n        string destinationActorId, \n        address destinationPlatform, \n        string[] payloads\n    ) public onlyOwner onlyPlatformActor(sourcePlatform, sourceActorId) onlyPlatformActor(destinationPlatform, destinationActorId) {\n        require(\n            boxIds.length == payloads.length,\n            \"Length of boxes must match payloads length\"\n        );\n        \n        for(uint i=0; i<boxIds.length; i++) {\n            string memory boxId = boxIds[i];\n            BoxSession memory boxSession = boxSessions[boxId];\n            \n            require(\n                boxSession.timestamp > 0,\n                \"Box must have an active session\"\n            );\n            \n            updateBoxState(boxId, destinationActorId, destinationPlatform, BoxStates.HANDOVER_WAREHOUSE_TRANSPORT);\n            emit LogHandoverWarehouseTransport(boxSession.id, sourceActorId, sourcePlatform, destinationActorId, destinationPlatform, boxId, payloads[i], now);\n        }\n    }\n    \n    // Handover between a transport actor and a supermarket actor\n    function handoverTransportSupermarket(\n        string[] boxIds,\n        string sourceActorId, \n        address sourcePlatform, \n        string destinationActorId, \n        string[] payloads\n    ) public onlyOwner onlyPlatformActor(sourcePlatform, sourceActorId) onlyActor(destinationActorId) {\n        require(\n            boxIds.length == payloads.length,\n            \"length of boxes must match payloads length\"\n        );\n\n        for(uint i=0; i<boxIds.length; i++) {\n            string memory boxId = boxIds[i];\n            BoxSession memory boxSession = boxSessions[boxId];\n            \n            require(\n                boxSession.timestamp > 0,\n                \"Box must have an active session\"\n            );\n            \n            updateBoxState(boxId, destinationActorId, address(0), BoxStates.HANDOVER_TRANSPORT_SUPERMARKET);\n            emit LogHandoverTransportSupermarket(boxSession.id, sourceActorId, sourcePlatform, destinationActorId, boxId, payloads[i], now);\n        }\n    }\n    \n    // Getters\n\n    function getPlatform(address platformId) public view returns (\n        address id,\n        string name,\n        PlatformTypes platformType,\n        string metadata,\n        uint timestamp\n    ){\n        Platform storage platform = platforms[platformId];\n        \n        return (\n            platform.id,\n            platform.name,\n            platform.platformType,\n            platform.metadata,\n            platform.timestamp\n        );\n    }\n    \n    function getEntity(string _id) public view returns (\n        string id,\n        string name,\n        address platform,\n        EntityTypes entityType,\n        string metadata,\n        uint timestamp\n    ){\n        Entity storage entity = entities[_id];\n        \n        return (\n            entity.id,\n            entity.name,\n            entity.platform,\n            entity.entityType,\n            entity.metadata,\n            entity.timestamp\n        );\n    } \n    \n    function getActor(string actorId) public view returns (\n        string id,               \n        address platform,\n        ActorTypes actorType,\n        string metadata,\n        uint timestamp\n    ){\n        Actor storage actor = actors[actorId];\n        \n        return (\n            actor.id,\n            actor.platform,\n            actor.actorType,\n            actor.metadata,\n            actor.timestamp\n        );\n    }\n    \n    function getBox(string _boxId) public view returns (\n        string boxId,\n        bytes32 sessionId,\n        address assignedPlatform,\n        string currentActorId,\n        address currentPlatform,\n        BoxStates currentState,\n        string boxMetadata,\n        string sessionMetadata,\n        uint creationTimestamp,\n        uint updateTimestamp\n    ){\n        Box storage box = boxes[_boxId];\n        BoxSession storage boxSession = boxSessions[_boxId];\n        \n        return (\n            box.id,\n            boxSession.id,\n            box.platform,\n            boxSession.actorId,\n            boxSession.platform,\n            boxSession.state,\n            box.metadata,\n            boxSession.metadata,\n            box.timestamp,\n            boxSession.timestamp\n        );\n    }\n}",
  "sourcePath": "/home/artemis/EthereumProjects/sofie-sc/contracts/FoodChain.sol",
  "compiler": {
    "name": "solc",
    "version": "0.4.22+commit.4cb486ee.Emscripten.clang"
  },
  "schemaVersion": "3.0.9",
  "updatedAt": "2020-07-29T08:39:28.509Z",
  "devdoc": {
    "methods": {}
  },
  "userdoc": {
    "methods": {}
  }
}