{
  "contractName": "FoodChainKSIAdapter",
  "abi": [
    {
      "inputs": [],
      "payable": false,
      "stateMutability": "nonpayable",
      "type": "constructor"
    },
    {
      "anonymous": false,
      "inputs": [
        {
          "indexed": false,
          "name": "id",
          "type": "uint256"
        },
        {
          "indexed": false,
          "name": "data",
          "type": "bytes"
        }
      ],
      "name": "LogInterledgerEventCommitted",
      "type": "event"
    },
    {
      "anonymous": false,
      "inputs": [
        {
          "indexed": false,
          "name": "id",
          "type": "uint256"
        },
        {
          "indexed": false,
          "name": "reason",
          "type": "uint256"
        }
      ],
      "name": "LogInterledgerEventAborted",
      "type": "event"
    },
    {
      "anonymous": false,
      "inputs": [
        {
          "indexed": false,
          "name": "id",
          "type": "uint256"
        },
        {
          "indexed": false,
          "name": "data",
          "type": "bytes"
        }
      ],
      "name": "InterledgerEventSending",
      "type": "event"
    },
    {
      "constant": false,
      "inputs": [
        {
          "name": "id",
          "type": "uint256"
        },
        {
          "name": "data",
          "type": "bytes"
        }
      ],
      "name": "registerInterledgerKSIEvent",
      "outputs": [],
      "payable": false,
      "stateMutability": "nonpayable",
      "type": "function"
    },
    {
      "constant": false,
      "inputs": [
        {
          "name": "id",
          "type": "uint256"
        },
        {
          "name": "data",
          "type": "bytes"
        }
      ],
      "name": "interledgerCommit",
      "outputs": [],
      "payable": false,
      "stateMutability": "nonpayable",
      "type": "function"
    },
    {
      "constant": false,
      "inputs": [
        {
          "name": "id",
          "type": "uint256"
        },
        {
          "name": "reason",
          "type": "uint256"
        }
      ],
      "name": "interledgerAbort",
      "outputs": [],
      "payable": false,
      "stateMutability": "nonpayable",
      "type": "function"
    },
    {
      "constant": true,
      "inputs": [
        {
          "name": "id",
          "type": "uint256"
        },
        {
          "name": "reason",
          "type": "uint256"
        }
      ],
      "name": "retrieveKSIId",
      "outputs": [
        {
          "name": "",
          "type": "bytes"
        }
      ],
      "payable": false,
      "stateMutability": "view",
      "type": "function"
    },
    {
      "constant": true,
      "inputs": [
        {
          "name": "id",
          "type": "uint256"
        }
      ],
      "name": "retrieveKSIId",
      "outputs": [
        {
          "name": "ksiId",
          "type": "bytes"
        }
      ],
      "payable": false,
      "stateMutability": "view",
      "type": "function"
    }
  ],
  "bytecode": "0x608060405234801561001057600080fd5b5060008054600160a060020a033316600160a060020a031990911617905561054c8061003d6000396000f3006080604052600436106100615763ffffffff7c0100000000000000000000000000000000000000000000000000000000600035041663431b003981146100665780638bf36bec146100c6578063a27f7ddd146100e1578063ab1fb9831461013f575b600080fd5b34801561007257600080fd5b5060408051602060046024803582810135601f81018590048502860185019096528585526100c49583359536956044949193909101919081908401838280828437509497506101cc9650505050505050565b005b3480156100d257600080fd5b506100c4600435602435610321565b3480156100ed57600080fd5b5060408051602060046024803582810135601f81018590048502860185019096528585526100c49583359536956044949193909101919081908401838280828437509497506103609650505050505050565b34801561014b57600080fd5b506101576004356103e5565b6040805160208082528351818301528351919283929083019185019080838360005b83811015610191578181015183820152602001610179565b50505050905090810190601f1680156101be5780820380516001836020036101000a031916815260200191505b509250505060405180910390f35b6000543373ffffffffffffffffffffffffffffffffffffffff90811691161461027c57604080517f08c379a000000000000000000000000000000000000000000000000000000000815260206004820152602e60248201527f4f6e6c792074686520636f6e7472616374206f776e65722063616e2063616c6c60448201527f20746869732066756e6374696f6e000000000000000000000000000000000000606482015290519081900360840190fd5b7fdf615ba0704e540f1a047ab6490bef9d74f87ba3240ea085994eee58486e2e4d82826040518083815260200180602001828103825283818151815260200191508051906020019080838360005b838110156102e25781810151838201526020016102ca565b50505050905090810190601f16801561030f5780820380516001836020036101000a031916815260200191505b50935050505060405180910390a15050565b604080518381526020810183905281517fd1767eeeb681815a185b10b61ffb887fbaf311dde858c7b1afeeb344fbea8609929181900390910190a15050565b6000828152600160209081526040909120825161037f92840190610485565b507f2233afc41aefd8bc0ee707d4a075b4ab750409f5e88912505122400b2053ca168282604051808381526020018060200182810382528381815181526020019150805190602001908083836000838110156102e25781810151838201526020016102ca565b60008181526001602081815260409283902080548451600294821615610100026000190190911693909304601f810183900483028401830190945283835260609390918301828280156104795780601f1061044e57610100808354040283529160200191610479565b820191906000526020600020905b81548152906001019060200180831161045c57829003601f168201915b50505050509050919050565b828054600181600116156101000203166002900490600052602060002090601f016020900481019282601f106104c657805160ff19168380011785556104f3565b828001600101855582156104f3579182015b828111156104f35782518255916020019190600101906104d8565b506104ff929150610503565b5090565b61051d91905b808211156104ff5760008155600101610509565b905600a165627a7a72305820c3b74e1e4ec588a6f2ea77167aa907b4bb0726a4213bb239571462132f6d1c630029",
  "source": "pragma solidity ^0.4.22;\n\nimport \"./InterledgerSenderKSIInterface.sol\";\n\ncontract FoodChainKSIAdapter is InterledgerSenderKSIInterface {\n    address owner;\n    mapping(uint256 => bytes) ksiIds;\n    \n    event LogInterledgerEventCommitted(uint256 id, bytes data);\n    event LogInterledgerEventAborted(uint256 id, uint256 reason);\n    \n    constructor() public {\n        owner = msg.sender;\n    }\n\n    modifier onlyOwner() {\n        require(\n            msg.sender == owner,\n            \"Only the contract owner can call this function\"\n        );\n        _;\n    }\n    \n    /**\n     * @dev Function will be called by the FSC supervisor component to notify the KSI interledger component.\n     * @param id The identifier of  the data (internal to the supervisor)\n     * @param data The data to relay to KSI\n     */\n    function registerInterledgerKSIEvent(\n        uint256 id,\n        bytes memory data\n    ) public onlyOwner {\n        emit InterledgerEventSending(id, data);\n    }\n    \n    function interledgerCommit(uint256 id, bytes memory data) public {\n        ksiIds[id] = data;\n        emit LogInterledgerEventCommitted(id, data);\n    }\n    \n    function interledgerAbort(uint256 id, uint256 reason) public {\n        emit LogInterledgerEventAborted(id, reason);\n    }\n\n    /**\n     * @dev Function called to retrieve a KSI id based on an interledger transaction id\n     * @param id The interledger transaction id\n     * @return bytes The KSI id (uuid) that was created in the transaction\n     */\n    function retrieveKSIId(uint256 id) public view returns (bytes memory) {\n        return ksiIds[id];\n    }\n}",
  "sourcePath": "/home/artemis/EthereumProjects/sofie-sc/contracts/FoodChainKSIAdapter.sol",
  "compiler": {
    "name": "solc",
    "version": "0.4.22+commit.4cb486ee.Emscripten.clang"
  },
  "schemaVersion": "3.0.9",
  "updatedAt": "2020-07-30T14:14:28.777Z",
  "devdoc": {
    "methods": {
      "interledgerCommit(uint256)": {
        "details": "Function that will be called when the recipient has accepted the data ",
        "params": {
          "id": "The identifier of data sending event"
        }
      },
      "registerInterledgerKSIEvent(uint256,bytes)": {
        "details": "Function will be called by the FSC supervisor component to notify the KSI interledger component.",
        "params": {
          "data": "The data to relay to KSI",
          "id": "The identifier of  the data (internal to the supervisor)"
        }
      },
      "retrieveKSIId(uint256)": {
        "details": "Function called to retrieve a KSI id based on an interledger transaction id",
        "params": {
          "id": "The interledger transaction id"
        },
        "return": "bytes The KSI id (uuid) that was created in the transaction"
      }
    }
  },
  "userdoc": {
    "methods": {}
  }
}