{
  "contractName": "FoodChainAdapter",
  "abi": [
    {
      "inputs": [],
      "payable": false,
      "stateMutability": "nonpayable",
      "type": "constructor"
    },
    {
      "anonymous": false,
      "inputs": [
        {
          "indexed": false,
          "name": "id",
          "type": "uint256"
        }
      ],
      "name": "LogInterledgerEventCommitted",
      "type": "event"
    },
    {
      "anonymous": false,
      "inputs": [
        {
          "indexed": false,
          "name": "id",
          "type": "uint256"
        },
        {
          "indexed": false,
          "name": "reason",
          "type": "uint256"
        }
      ],
      "name": "LogInterledgerEventAborted",
      "type": "event"
    },
    {
      "anonymous": false,
      "inputs": [
        {
          "indexed": false,
          "name": "id",
          "type": "uint256"
        },
        {
          "indexed": false,
          "name": "data",
          "type": "bytes"
        }
      ],
      "name": "InterledgerEventSending",
      "type": "event"
    },
    {
      "constant": false,
      "inputs": [
        {
          "name": "id",
          "type": "uint256"
        },
        {
          "name": "boxId",
          "type": "string"
        },
        {
          "name": "sessionId",
          "type": "string"
        },
        {
          "name": "signatures",
          "type": "bytes32[8]"
        }
      ],
      "name": "registerInterledgerEvent",
      "outputs": [],
      "payable": false,
      "stateMutability": "nonpayable",
      "type": "function"
    },
    {
      "constant": false,
      "inputs": [
        {
          "name": "id",
          "type": "uint256"
        }
      ],
      "name": "interledgerCommit",
      "outputs": [],
      "payable": false,
      "stateMutability": "nonpayable",
      "type": "function"
    },
    {
      "constant": false,
      "inputs": [
        {
          "name": "id",
          "type": "uint256"
        },
        {
          "name": "reason",
          "type": "uint256"
        }
      ],
      "name": "interledgerAbort",
      "outputs": [],
      "payable": false,
      "stateMutability": "nonpayable",
      "type": "function"
    }
  ],
  "bytecode": "0x608060405234801561001057600080fd5b5060008054600160a060020a033316600160a060020a03199091161790556104678061003d6000396000f3006080604052600436106100565763ffffffff7c010000000000000000000000000000000000000000000000000000000060003504166334791cb9811461005b5780638bf36bec1461007557806393380ce614610090575b600080fd5b34801561006757600080fd5b50610073600435610153565b005b34801561008157600080fd5b50610073600435602435610189565b34801561009c57600080fd5b5060408051602060046024803582810135601f810185900485028601850190965285855261007395833595369560449491939091019190819084018382808284375050604080516020601f89358b018035918201839004830284018301909452808352979a999881019791965091820194509250829150840183828082843750506040805161010081810190925295989796818101969550935060089250849150839080828437509396506101c895505050505050565b6040805182815290517f4a7a6f2cc961bf403ed0821b181838a06451352de2e1439c89b5aa986be10de69181900360200190a150565b604080518381526020810183905281517fd1767eeeb681815a185b10b61ffb887fbaf311dde858c7b1afeeb344fbea8609929181900390910190a15050565b6000546060903373ffffffffffffffffffffffffffffffffffffffff90811691161461027b57604080517f08c379a000000000000000000000000000000000000000000000000000000000815260206004820152602e60248201527f4f6e6c792074686520636f6e7472616374206f776e65722063616e2063616c6c60448201527f20746869732066756e6374696f6e000000000000000000000000000000000000606482015290519081900360840190fd5b83838360405160200180806020018060200184600860200280838360005b838110156102b1578181015183820152602001610299565b50505050905001838103835286818151815260200191508051906020019080838360005b838110156102ed5781810151838201526020016102d5565b50505050905090810190601f16801561031a5780820380516001836020036101000a031916815260200191505b50838103825285518152855160209182019187019080838360005b8381101561034d578181015183820152602001610335565b50505050905090810190601f16801561037a5780820380516001836020036101000a031916815260200191505b509550505050505060405160208183030381529060405290507fdf615ba0704e540f1a047ab6490bef9d74f87ba3240ea085994eee58486e2e4d85826040518083815260200180602001828103825283818151815260200191508051906020019080838360005b838110156103f95781810151838201526020016103e1565b50505050905090810190601f1680156104265780820380516001836020036101000a031916815260200191505b50935050505060405180910390a150505050505600a165627a7a72305820ba08c74951b619ac92ee79c5298254ad55bde099c9a19977ac7b8898cd754e230029",
  "source": "pragma solidity ^0.4.22;\n\nimport \"./InterledgerSenderInterface.sol\";\n\ncontract FoodChainAdapter is InterledgerSenderInterface {\n    address owner;\n    \n    event LogInterledgerEventCommitted(uint256 id);\n    event LogInterledgerEventAborted(uint256 id, uint256 reason);\n    \n    constructor() public {\n        owner = msg.sender;\n    }\n\n    modifier onlyOwner() {\n        require(\n            msg.sender == owner,\n            \"Only the contract owner can call this function\"\n        );\n        _;\n    }\n    \n    /**\n     * @dev Function will be called by the FSC supervisor component to notify the interledger component.\n     * @param id The identifier of  the data (internal to the supervisor)\n     * @param boxId The relevant box id\n     * @param sessionId The relevant box session id\n     * @param signatures The generated signatures of the given session\n     */\n    function registerInterledgerEvent(\n        uint256 id, \n        string boxId, \n        string sessionId, \n        bytes32[8] signatures\n    ) public onlyOwner {\n        bytes memory data = abi.encode(boxId, sessionId, signatures);\n        emit InterledgerEventSending(id, data);\n    }\n    \n    function interledgerCommit(uint256 id) public {\n        emit LogInterledgerEventCommitted(id);\n    }\n    \n    function interledgerAbort(uint256 id, uint256 reason) public {\n        emit LogInterledgerEventAborted(id, reason);\n    }\n}",
  "sourcePath": "/home/artemis/EthereumProjects/sofie-sc/contracts/FoodChainAdapter.sol",
  "compiler": {
    "name": "solc",
    "version": "0.4.22+commit.4cb486ee.Emscripten.clang"
  },
  "schemaVersion": "3.0.9",
  "updatedAt": "2020-07-29T08:39:28.824Z",
  "devdoc": {
    "methods": {
      "registerInterledgerEvent(uint256,string,string,bytes32[8])": {
        "details": "Function will be called by the FSC supervisor component to notify the interledger component.",
        "params": {
          "boxId": "The relevant box id",
          "id": "The identifier of  the data (internal to the supervisor)",
          "sessionId": "The relevant box session id",
          "signatures": "The generated signatures of the given session"
        }
      }
    }
  },
  "userdoc": {
    "methods": {}
  }
}